:020000040800F2
:10000000B8060020650100084710000845100008E8
:1000100000000000000000000000000000000000E0
:100020000000000000000000000000004B1000086D
:100030000000000000000000491000084D100008FA
:100040007701000800000000770100087701000830
:1000500077010008770100087701000877010008A0
:100060000000000077010008770100087701000810
:100070007701000877010008770100080000000000
:100080007701000877010008770100087701000870
:100090007701000877010008770100087701000860
:1000A0007701000877010008770100087701000850
:1000B00077010008770100080000000077010008C0
:1000C00000F002F800F03EF80CA030C80838241800
:1000D0002D18671EA246AB4654465D46AC4201D180
:1000E00000F030F87E460F3EB6460FCC0126334274
:1000F00000D0FB1A3343A246AB46184768120000F3
:1001000088120000103A02D378C878C1FAD8520792
:1001100001D330C830C101D504680C6070470000BD
:100120000023002400250026103A01D378C1FBD813
:10013000520700D330C100D50B6070471FB51FBDFB
:1001400010B510BD00F04DF81146FFF7F7FF00F0B5
:1001500083FF00F065F803B4FFF7F2FF03BC00F083
:100160006BF800000748804707480047FEE7FEE7B6
:10017000FEE7FEE7FEE7FEE704480549054A064BB1
:100180007047000055100008C1000008B8000020AA
:10019000B8060020B8020020B802002001E004C028
:1001A000091F0429FBD28B0701D50280801CC907D7
:1001B00000D00270704700290BD0C30702D0027034
:1001C000401C491E022904D3830702D50280801CEB
:1001D000891EE3E70022EEE70022DFE77047704761
:1001E0007047754600F024F8AE4605006946534650
:1001F000C008C000854618B020B5FFF7BDFF60BC41
:10020000B64600260027C0C5C0C5C0C5C0C5C0C50C
:10021000C0C5C0C5C0C5403D490849008D467047AE
:1002200010B50446C046C0462046FFF794FF10BDF7
:10023000004870471000002001491820ABBEFEE7BF
:10024000260002007047000070B582B00546002409
:1002500001940068816803220A40012A05D10168DF
:10026000C9070ED1C16809040BD48168214A114223
:100270000AD0A86B10210143A963E86B0124204335
:10028000E863204602B070BD816801220A438260A3
:1002900062480068624900F051FF0190019800280F
:1002A00017D00198401E01900198002811D00198A4
:1002B000401E0190019800280BD00198401E01902B
:1002C0000198002805D00198401E0190019800284F
:1002D000E7D100F081FB064628680068C007D0D14E
:1002E00000F07AFB811B28680329F6D30168C9074F
:1002F000F3D1BEE717000080F0B583B00027029766
:100300003422825C012A02D1022003B0F0BD0546EE
:1003100034350668B268520717D4009701950B6808
:100320004A68012427469F403A4DAA4213D1B06A39
:10033000B843B0621846A0431028009F3846019D7C
:1003400054D1102B19D0384818E0816B20220A4371
:10035000826301204AE0B26A3A43B262C06A421E36
:10036000072A46D21846A0431028009F3846019D10
:100370003CD1102B0AD0A00509E02A4826490A687A
:1003800002400A6038462F7003B0F0BDE0052249F4
:100390000A6802430A60102B384627D11F480068BC
:1003A0001F4900F0CBFE0A21414302910298002828
:1003B00038461BD00298401E02900298002811D0A7
:1003C0000298401E0290029800280BD00298401E0E
:1003D00002900298002805D00298401E02900298D0
:1003E0000028E7D138462F7003B0F0BD2F7003B05E
:1003F000F0BD22079042B5D072690720024089689B
:100400009142AFD0726982437261014070690843C2
:100410007061A7E7011000000827014008000020D4
:1004200040420F00FFFF7FFFFFFFBFFF0068006C2F
:1004300070470000F0B581B00125002862D0044665
:1004400006462436806B002803D0A06BC00609D571
:1004500054E000203074E063204600F097F8A06B71
:10046000C0064BD420688168490747D481214900E0
:10047000A26B8A43911CA163826803210A40012A6E
:1004800005D10268D2070ED1C26812040BD4C2682B
:1004900018239A43A3681343C360890702698A43F8
:1004A000616811430161C168364A0A40C260A16AAD
:1004B000491E4A1E91410903227E9203637EDB039B
:1004C0001343A27E55031D43E36827692B430B4367
:1004D000B91E4D424D41AD001D43317849002943BD
:1004E000E37E012B14D1002A0FD0A26B20231343EB
:1004F000A363E26B01231343E36309E0A06B1021C4
:100500000143A163284601B0F0BD0122120411434A
:10051000E269FF23C2339A4202D0236A194311438E
:10052000C2680A43C260E26A531E072B24D24369A1
:100530000725AB4343612A40436913434361C068C5
:10054000114A02408A420AD10025E563A06B0121CD
:10055000014302208143A163284601B0F0BDA06B96
:100560001021014302208143A163E06B0125284350
:10057000E063284601B0F0BD01231B079A42D6D0A4
:10058000DDE7C0461902FEFFE7FF3F8310B586B0E6
:100590000021059104910068104A904201D006B0F4
:1005A00010BD0F484268012301935C022243426060
:1005B000426822400092009A5A0403681343036081
:1005C0000068104000900391032002900920C006AB
:1005D000009901A900F028F906B010BD00240140DF
:1005E00014100240F0B581B00D4604464069082859
:1005F00001D1082704E02068C068C00764D10C2737
:1006000000F0EAF906462168086838421CD001204B
:100610004202A36B1343A363CA681205920F66D10B
:10062000A27E002A63D10A68120760D58A68520741
:1006300054D4224638324B680C25AB434B60FF251F
:1006400002351368AB4350E0681C39D0002D1BD134
:100650000868384221D008683842D8D10868384242
:100660001BD008683842D2D10868384215D00868D3
:100670003842CCD1086838420FD008683842E7D0F9
:10068000C5E708683842C2D100F0A6F9801B21688E
:10069000A842F6D908683842F3D134200021215409
:1006A000A06B04210143A163032001B0F0BD0868E1
:1006B0003842ACD108683842A9D108683842A6D17E
:1006C00008683842F3D0A2E7342000212154A06BFF
:1006D00020210143A163012001B0F0BDA26B2023C2
:1006E0001343A36322463C32E36B03431360227E31
:1006F0000020002A01D001B0F0BD0C220A6001B038
:10070000F0BD000070B5044600688168022049070A
:100710000FD43421615C01290BD0254634350126E4
:100720002E70607E012805D02046FFF78DFD002841
:1007300000D070BDA06B0849014030020818A063CA
:100740000020E06321681C220A6028708A68042364
:1007500013438B6070BDC046FEF0FFFFF0B581B063
:1007600004463420205C012802D1022001B0F0BDF3
:10077000264634360127377020688168490711D42E
:10078000826803210A40012A05D10268D20724D1D8
:10079000C268120421D4FF200230A16B8143383497
:1007A00000203BE08168490706D58168890703D4AA
:1007B000816810220A43826000F00EF90546206825
:1007C00081684907DCD500F007F9411B206803293F
:1007D000F6D381684907F3D519E0826805231340F1
:1007E000012B14D18268022313438360016000F05F
:1007F000F3F8054620688068C007CCD000F0ECF81C
:10080000411B20680329F6D38168C907F3D0A06B88
:1008100010210143A163E16B3C3438460022327061
:100820003943216001B0F0BDF0B58AB003900F6884
:10083000002F00D1C3E06348039A824201D0052013
:1008400000E00320009000231A461C4608910BE0AC
:100850003A433260079A641C0F683846E0409B1C9C
:10086000121D002800D1AAE001260596A6403740B7
:10087000F1D00792032002469A400293D34349687D
:100880000D4605406A1E012A0693049113D801976C
:10089000039FB8681840089AD268029B9A400243A6
:1008A000BA60C806C00FA0407A68B2433E46019FB6
:1008B0000243726006E0032D039E029B02D10546AF
:1008C000079A1EE0F0680699084008998A689A40DD
:1008D0000243F260022D079A13D11C2010400F2111
:1008E0008140E2089200B218156A8D43089E316972
:1008F000814029431162079A7068039E0325049082
:1009000005409D40306806990840284330600498AF
:100910008003800F08999ED057490868059D284399
:1009200008600868284009900C2010400F2282407F
:10093000032125468D430999244EA9599143AD19A8
:100940000922D206039E96420CD0214A964206D036
:10095000204A9642009A1C4E06D1022204E01A4E0A
:10096000059A01E00022184E82400A432A60B568C9
:10097000089801464068C2020FD53D43B560F5684E
:1009800082020FD4BD43F560756882030FD4BD4366
:1009900075603268C00310D55AE7BD43B560F5688D
:1009A0008202EFD53D43F56075688203EFD53D4384
:1009B00075603268C00300D54AE7BA4349E70AB018
:1009C000F0BDC046000C0048000401400800014092
:1009D0000004004800080048054800687047C04609
:1009E0001A48007802490A68101808607047C04623
:1009F000B400002080B57A48016810220A430260E2
:100A0000032000F005F800F023F8002080BDC04668
:100A100070B504467D20C0000C4E317800F08EFB8E
:100A200001467648006800F089FB00F0F1FA0125E4
:100A3000032C08D8002806D10025E84321462A4681
:100A400000F01CF87460284670BDC046000000200D
:100A500082B0094801680122114301600168114018
:100A600001910199110742680A43426040680840B9
:100A70000090009802B0704718100240002805D47A
:100A80000322034693430A4A9A1803E00C220240C9
:100A9000064BD2188007C00E8901C9B28140FF23DE
:100AA00083401068984308431060704714ED00E0DD
:100AB00000E400E0F0B581B0002861D00446484A67
:100AC0001368012003408B4208D213680126B34308
:100AD0000B431360126832408A424ED10091216864
:100AE0008A07404B11D54A0707D5072212023D4B12
:100AF0001B6813433B4A13603A4B1A68F0239A432E
:100B0000A3681343374A1360364BC9073CD13449B5
:100B1000086801263040009A904205D90868B04321
:100B200008600868C00728D12078400706D507204C
:100B3000000219688143E0680843186019680C22B4
:100B40000A402A48082A0CD18902090F284A545C15
:100B5000996A0F220A402749895C00F0EFFA214B7D
:100B6000604319680906090F234A515CC8402349AC
:100B700008600320FFF74CFF0026304601B0F0BDAF
:100B80000126304601B0F0BD61681A1F022906D067
:100B9000012909D1126892030646EED508E01268D1
:100BA00092010646E9D503E0126892070646E4D5AD
:100BB00018680326B04308431860FFF70DFF074687
:100BC000094D084B18680C21014060688000814283
:100BD0009DD0FFF701FFC01BA842F2D9CDE7C04668
:100BE00000200240041002408813000000127A0026
:100BF00042130008521300083213000808000020B6
:100C0000F0B587B004460120002C00D1F5E1049036
:100C10002078C007FB4E059419D071680C20014064
:100C200004290DD071680140082900D0C0E00320DC
:100C3000C0037168014001200004814200D0B7E088
:100C40003068800303D56068002800D118E120785F
:100C500080071FD570680007800F0CD070680C21CA
:100C6000014008297AD10320C003716801400120A6
:100C7000C003814272D130688007059C03D5E068CB
:100C8000012800D0FCE03068F82188432169C900C0
:100C900001433160059C2078000724D42078400768
:100CA00036D42078C00600D4C5E005984069411DBF
:100CB00000D1B4E0012800D007E1706B04210143AA
:100CC0007163706B012101437163FFF785FE054677
:100CD000706B800700D5A6E0FFF77EFE411B032066
:100CE0000229F5D989E1706AE169002974D00121EE
:100CF00008437062FFF770FE0546706A8007CDD426
:100D0000FFF76AFE401B0228F7D9032007B0F0BDA9
:100D1000012003900107F0690840029006D1F069B4
:100D20000843F061F0690840069006980191B64FBB
:100D30003868C00528D40398040238682043386016
:100D4000FFF74AFE0546386820421DD1FFF744FEF2
:100D5000401B6428F7D9032007B0F0BD3068059C1C
:100D6000E16800294AD0012108433060FFF734FED2
:100D700005463068800786D4FFF72EFE401B022808
:100D8000F7D9032007B0F0BD059880689F4F002871
:100D900000D1AFE0052800D1C1E0012800D1C2E0B8
:100DA000306A039988433062306A04218843BDE089
:100DB000616801204704002900D1D0E0052900D155
:100DC000E4E0012900D1E5E0010432688A433260A1
:100DD000810430688843E0E0012188437062FFF7B6
:100DE000FBFD0546706A800700D457E7FFF7F4FD66
:100DF000401B0228F6D9032007B0F0BD012188432B
:100E00003060FFF7E9FD05463068800700D441E710
:100E1000FFF7E2FD411B03200229F5D9EDE0706BDD
:100E2000042188437063706BF821884305998969B0
:100E3000C900014371630598046A002C1DD07068D5
:100E40000C21014008291ED1012C19D00320C20316
:100E500070680240F16A059C636A9A4210D10F22C1
:100E60001140E36A9942049B00D0C8E09104084015
:100E7000A16A8842184600D0BFE0002007B0F0BD4C
:100E8000049807B0F0BD0120020631680492914336
:100E900031604706FFF7A0FD0546022C0BD1049CEC
:100EA0003068384200D188E0FFF796FD411B0320EF
:100EB0000229F5D9A1E030683842DED0FFF78CFD79
:100EC000411B03200229F6D997E0706B04210143EE
:100ED0007163706B012188437063FFF77DFD0546E8
:100EE000706B8007A7D5FFF777FD411B0320022910
:100EF000F6D982E0306A039988433062306A04216F
:100F000088433062FFF768FD0546306A80071CD5CC
:100F1000FFF762FD411B0320B942F6D96DE0306A4C
:100F2000042101433162306A039908433062FFF7BC
:100F300053FD0546306A800707D4FFF74DFD401B7F
:100F4000B842F7D9032007B0F0BD02980028059CED
:100F500000D0A6E6F06901998843F061A1E601049A
:100F600032688A4332608004316881433160FFF720
:100F700033FD0546059C3068384200D167E6FFF72F
:100F80002BFD411B03206429F5D936E0810432682A
:100F90000A4332600104306808433060FFF71CFDEB
:100FA00005463068384200D051E6FFF715FD401B7A
:100FB0006428F6D9032007B0F0BDF06A0F218843FA
:100FC000059AD16A0143F1627B20C00371688143B5
:100FD000906A0843516A0143716030682043306071
:100FE000FFF7FAFC04463068384200D045E7FFF7C7
:100FF000F3FC011B03200229F5D907B0F0BD184608
:1010000007B0F0BD001002400070004088130000DF
:10101000401E010E01D0012070470749074A506069
:10102000074803680B400321890759180160002015
:101030009060072111607047FFFFFF0010E000E0A3
:1010400020ED00E0FEE7FEE77047704780B5FFF750
:10105000C7FC80BD7047000090B0FFF7CBFC04AD2B
:10106000281D2C21FFF7B8F80126099607961220B3
:10107000049000240C9410200A9008902846FFF752
:10108000BFFD002803D0EFF3108072B6FEE7039493
:10109000029401940720009068462146FFF70AFD5C
:1010A000002803D0EFF3108072B6FEE72820204F0F
:1010B0003C5470041F490A6802430A60FE627C6265
:1010C0000422BA617E613C61FC60BC601A4A7A60AD
:1010D000FF22C2323A620968FC610140049104981F
:1010E0003D1D2846FFF7A6F9002803D0EFF3108036
:1010F00072B6FEE70494300706903003059004A909
:101100002846FFF7F9F8002803D0EFF3108072B6F5
:10111000FEE72846FFF7F6FA64212846FFF762FA51
:101120002846FFF783F938602846FFF717FBF0E7FA
:1011300070000020141002400024014043088B423C
:101140001AD3002203098B4279D3030A8B425ED360
:10115000030B8B4242D3030C8B4227D30902FF229D
:1011600012BA030C8B4202D31212090203D0030BF2
:101170008B4233D31AE0D3E0411A8041401C7047C0
:1011800003460B4371D443088B42F5D30022030975
:101190008B4254D3030A8B4239D3030B8B421DD3AA
:1011A000030C8B4202D394466EE0090AC30B8B42B8
:1011B00001D3CB03C01A5241830B8B4201D38B0363
:1011C000C01A5241430B8B4201D34B03C01A524108
:1011D000030B8B4201D30B03C01A5241C30A8B424B
:1011E00001D3CB02C01A5241830A8B4201D38B0236
:1011F000C01A5241430A8B4201D34B02C01A5241DA
:10120000030A8B4201D30B02C01A5241CDD2C3094B
:101210008B4201D3CB01C01A524183098B4201D3C7
:101220008B01C01A524143098B4201D34B01C01AB2
:10123000524103098B4201D30B01C01A5241C3082A
:101240008B4201D3CB00C01A524183088B4201D399
:101250008B00C01A524143088B4201D34B00C01A85
:101260005241411A524110007047CA0F00D0494202
:10127000031000D34042534000229C4603098B4296
:101280002DD3030A8B4212D38901FC2212BA030A1E
:101290008B420CD3890192118B4208D389019211A0
:1012A0008B4204D3890137D0921100E08909C30928
:1012B0008B4201D3CB01C01A524183098B4201D327
:1012C0008B01C01A524143098B4201D34B01C01A12
:1012D000524103098B4201D30B01C01A5241C3088A
:1012E0008B4201D3CB00C01A524183088B4201D3F9
:1012F0008B00C01A5241D9D243088B4201D34B0014
:10130000C01A5241411A00D201465241104663466A
:101310005B1000D34042704763465B1000D34042ED
:1013200001B50021004201D0C9430846C046C0466D
:1013300002BD0000000000000000010203040607D7
:10134000080902030405060708090A0B0C0D0E0F15
:1013500010100102030405060708090A0B0C0D0E04
:101360000F1000008813000800000020100000008B
:10137000040100089813000810000020A8060000CF
:10138000200100080000000001000000040000002F
:0813900000127A0000000000C9
:04000005080000C12E
:00000001FF
