:020000040800F2
:100000000807002065010008BB1A0008B91A00089B
:1000100000000000000000000000000000000000E0
:10002000000000000000000000000000BF1A0008EF
:100030000000000000000000BD1A0008C11A0008FE
:100040007701000800000000770100087701000830
:1000500077010008770100087701000877010008A0
:1000600000000000610B000877010008770100081C
:10007000090A000877010008770100080000000065
:100080007701000877010008770100087701000870
:100090007701000877010008770100087701000860
:1000A0007701000877010008770100087701000850
:1000B00077010008770100080000000077010008C0
:1000C00000F002F800F03EF80CA030C80838241800
:1000D0002D18671EA246AB4654465D46AC4201D180
:1000E00000F030F87E460F3EB6460FCC0126334274
:1000F00000D0FB1A3343A246AB4618476C1D0000E4
:100100008C1D0000103A02D378C878C1FAD8520783
:1001100001D330C830C101D504680C6070470000BD
:100120000023002400250026103A01D378C1FBD813
:10013000520700D330C100D50B6070471FB51FBDFB
:1001400010B510BD00F02DFC1146FFF7F7FF01F0D0
:10015000BDFC00F045FC03B4FFF7F2FF03BC00F068
:100160004BFC00000748804707480047FEE7FEE7D2
:10017000FEE7FEE7FEE7FEE704480549054A064BB1
:1001800070470000C91A0008C100000808010020DB
:1001900008070020080300200803002001E004C035
:1001A000091F0429FBD28B0701D50280801CC907D7
:1001B00000D00270704700290BD0C30702D0027034
:1001C000401C491E022904D3830702D50280801CEB
:1001D000891EE3E70022EEE70022DFE77047704761
:1001E000704700000246C80FC00781434B0030B57E
:1001F0004B405B009B0D20D01923DB06C91801235F
:100200001B05994220DB0324A40704251346AB40B9
:100210000BD3002B04D1EB0613409B00E34204D424
:1002200001246407002312195941FF231B05994239
:100230000BD2C9000143500F09E0CB0204D50143A2
:100240000803024305D0054830BDFF21C905084316
:1002500030BD084607210905884330BD0000C07F36
:10026000F0B5F94D0C091E092C402E402F468BB0DD
:10027000A7437DD0B543FCD0002E7AD0002CFCD013
:100280000D465D40ED0F2543AC1BFF25AD04641901
:100290000894C502440DC9022143500DDC020443F9
:1002A0000120C00701430443D2020191200C110C2C
:1002B00000958C46010423468B430A91614609044C
:1002C000E24D8A430991010A7D4449198039097830
:1002D00005464D4301266D18F605751B6943C90C8B
:1002E000640B891C4C436418B5012C1B250C2E048F
:1002F000B4434C434D43210C691889090591009D75
:10030000E90701D00121C90704912C46019967082A
:10031000CD072F434C08059DE10B4D432D0C29467D
:100320006646754302950D4645432E46029D7D1B4C
:10033000B44100950D465D4301942C0C2F040D46ED
:100340005543AE462D0C3D43029503947546049CDF
:100350002D04641B049406D2029C039D641C002699
:1003600075410395029401AC70CC009F7D1B01E0A8
:100370003EE162E1B44109040095079101940599B9
:10038000A4086143090C0C464443650BE7040C4682
:1003900066467443A646640B3C4303950294744638
:1003A000049DE4042C1B049406D2029C039D641C4F
:1003B000002675410395029401AC70CC009F7D1B13
:1003C000B44101940C465C430095650FE7000C4670
:1003D0005443A646640F3C43039502947446049D1F
:1003E000E4002C1B049406D2029C039D641C00268E
:1003F00075410395029401AC70CC009F7D1BB44104
:10040000AE09AF06049DC900AD092F43049DA406A3
:10041000AD060495079D344369180791059DE10BCE
:100420004D432D0C29466646754302950D464543BE
:100430002E46029D7D1BB44100950D465D430194FF
:100440002C0C2F040D465543AE462D0C3D43029512
:1004500003947546049C2D04641B049406D2029CEC
:10046000039D641C002675410395029401AC70CC79
:10047000009F7D1BB44101948C050694079C890A5A
:10048000611800950791019C0599A4086143090C26
:100490000D464543680BEF040D46644665436C0BFF
:1004A0003C43049FED047D1BAC4602D20025641C36
:1004B0006841009E019D371B8541084658430195C0
:1004C0000C46460FC5005443600F28436546E400C0
:1004D0002C1B02D20025401C6E41019D3F1AB541E4
:1004E0002846BD09800628438446A009BF064E025F
:1004F0000699A40676180743079D002068410A99CB
:10050000079019430020099B00906046FF19134390
:100510004041E20F64003A43A4460446D71A8C4196
:10052000A04203D90120009020463A46C70F9418F4
:1005300040416246D20F2243644664000494009C0A
:10054000BE466400D71AA446044602978C417746FB
:10055000002F01D1A04204D96046401C8446029A73
:100560002046C40FA64694184041049A0546D20F6F
:10057000224364466400D31A8D417146002901D19B
:10058000A84202D928461A46641C104301220028BA
:1005900000D0164361020020079B891904465C4184
:1005A0000223002C02DB491813466441089DCE0A41
:1005B0002D145D194B056705E10A2C050D190899E5
:1005C0003E43C9076940002B08D0934006D3002260
:1005D000761C5141002B01D1760876001C4A002D73
:1005E00043DB154241D0AA433FD030460BB0F0BDAB
:1005F00006180D464D41174C7642AC411AD395185A
:100600001C465C41134A6D42A24113D3012252059C
:100610004C00D4420AD15C00D4420BD04B4002D5EE
:1006200092021143E2E749004908DFE75940C90F48
:10063000C90718E000200849D8E7054801420DD154
:100640000342F7D0F2E700000000FF07EA1A0000BB
:100650000000F07F0000E0FF0000F87F11485940E3
:100660000143C01241400020C0E70123089A9B06C5
:100670009A4205DC032252078918C90FC907B5E75A
:10068000052252078918074A1143D2125140ADE79B
:1006900070B515461C4602460B4628462146FFF714
:1006A000DFFD70BDFFFFFF7FF0B58B4C0F092546C6
:1006B00089B0BD437BD01D092646AE43FAD00E4615
:1006C0005E402740F60F3E43254071D02401214271
:1006D000FBD0FF24AD19A4042D1B039501252D0586
:1006E000DB02DB0AC9022B43C90A29431E010901A7
:1006F000040F130F050121431701880B8203914357
:100700002D098C46A90B1E438A039543B30B9A030C
:1007100096433F09BA0B9403A74302962E467E43A5
:100720000497B6464E19D7190C46019654430597BF
:100730007E43371B7646BF1B3601B646BE0B3619C5
:1007400000967646BC043719009C01D3641C0094C3
:100750006400002F01D001263443029E049F75439C
:1007600066467E430496760034196E003419009470
:10077000029C019E1C196643751BAE460694654695
:100780004519059C05956C43594375460891691AAE
:100790000191049E01465143A41B0491611A009CDF
:1007A0000791E10605D061090122114302E072E0E0
:1007B0006EE06109089D00272C0A2D066918049D2A
:1007C0007C412A0A2D066918019D6241AC0DAD02DB
:1007D0006D185441079A910D920255196141029A80
:1007E000644658435443069B059A5A43121A131BF6
:1007F0009A0E9B015B187A41010B0005C318514109
:10080000220A200644195A419A4200D2491C01206A
:100810004002814203D315230226F64302E014234B
:100820000326F6432020C51AA9401746AF40DA40F8
:100830000A4320460399D840091473181905511822
:10084000039A3843D2075140AC4009D0012294406A
:1008500006D30022401C5141002C01D14008400029
:100860001E4A934212D3012203989206904207DB5C
:100870000520400709181A480143C012414004E00E
:10088000032040070818C10FC907002009B0F0BDB8
:100890000020F107FAE705180C464C4111486D425B
:1008A000A04115D394181A465A410E48644290410B
:1008B0000ED301204A004005824209D35A008242E9
:1008C00006D35940C90F084AC90700201143DDE784
:1008D00000200649DAE700000000FF07FE070000DD
:1008E000FFFFFF7F0000E0FF0000F07F0000F87FC7
:1008F0000121C9050123411842001B06D3185B0ED4
:100900000AD0C1100722D206891840075242D142AC
:1009100001D5520089187047090208D50146002AFE
:1009200003D0C10FC907002070471046704742022C
:1009300002D0002002497047072109050143F4E76E
:100940000000F87F1F22030C02D10F2200041CD0EC
:10095000030E01D10002083A030F01D10001121F5A
:10096000830F01D18000921E002801DB4000521E3F
:10097000D2055118021251181922904004D3491C73
:10098000002801D14908490008467047C10FC9072E
:1009900000D04042012292071143D3E70121890789
:1009A000D0E7754600F024F8AE4605006946534688
:1009B000C008C000854618B020B5FFF7DDFB60BC5D
:1009C000B64600260027C0C5C0C5C0C5C0C5C0C545
:1009D000C0C5C0C5C0C5403D490849008D467047E7
:1009E00010B50446C046C0462046FFF7B4FB10BD14
:1009F000004870471000002001491820ABBEFEE7F8
:100A0000260002007047000080B5024800F072F92D
:100A100080BDC0467C000020B0B50146406A826BB4
:100A200050231A4204D0006B026B08469047B0BDB9
:100A300001214A02836B134383630268D3681B0559
:100A40009B0F02D000F032F9B0BD837E002BF9D1AC
:100A500013681B07F6D593685B070AD4034638333F
:100A600054680C25AC435460FF2402341A68A24336
:100A700006E0826B20231343836303463C33C26B3F
:100A80000A431A6000F012F9B0BD80B5406A816B6C
:100A900040220A438263C16B04220A43C26300F00E
:100AA00028F980BD80B5406A00F022F980BD0000C1
:100AB00070B582B005460024019400688168032265
:100AC0000A40012A05D10168C9070ED1C16809048D
:100AD0000BD48168214A11420AD0A86B102101432E
:100AE000A963E86B01242043E863204602B070BD8F
:100AF000816801220A43826068480068684901F001
:100B00005FF801900198002817D00198401E0190CD
:100B10000198002811D00198401E019001980028EA
:100B20000BD00198401E01900198002805D0019833
:100B3000401E019001980028E7D100F07BFC06469A
:100B400028680068C007D0D100F074FC811B2868B9
:100B50000329F6D30168C907F3D1BEE71700008067
:100B600080B5024800F0A4FA80BDC046BC00002059
:100B7000EFF3108072B6FEE7F0B583B0002702975E
:100B80003422825C012A02D1022003B0F0BD054666
:100B900034350668B268520717D4009701950B6880
:100BA0004A68012427469F403A4DAA4213D1B06AB1
:100BB000B843B0621846A0431028009F3846019DF4
:100BC00054D1102B19D0384818E0816B20220A43E9
:100BD000826301204AE0B26A3A43B262C06A421EAE
:100BE000072A46D21846A0431028009F3846019D88
:100BF0003CD1102B0AD0A00509E02A4826490A68F2
:100C000002400A6038462F7003B0F0BDE00522496B
:100C10000A6802430A60102B384627D11F48006833
:100C20001F4900F0CDFF0A2141430291029800289C
:100C300038461BD00298401E02900298002811D01E
:100C40000298401E0290029800280BD00298401E85
:100C500002900298002805D00298401E0290029847
:100C60000028E7D138462F7003B0F0BD2F7003B0D5
:100C7000F0BD22079042B5D0726907200240896812
:100C80009142AFD07269824372610140706908433A
:100C90007061A7E70110000008270140080000204C
:100CA00040420F00FFFF7FFFFFFFBFFFB0B50446CC
:100CB0000B4D28686860FFF771FEFFF719FE0022F0
:100CC000084BFFF7CDFA084A084BFFF7EDFCFFF79A
:100CD00089FAA86001222046294600F097F9B0BDA4
:100CE0007000002000FEAF406666666666660A40D9
:100CF00070477047F0B581B004460068056804216C
:100D00002A460A4053425341466831404A424A41CA
:100D10001A430123012A09D108223240514251418C
:100D20002A071A4600D50A46002A36D11F46214610
:100D30003831A26BD20604D4012252020B6813434D
:100D40000B60C2681205920F20D108232B405A4233
:100D50005A41A37E002B3B4600D11346002B15D1F0
:100D60008268520708D442680C239A434260FF22EB
:100D700002320868904306E0A06B20210143A16382
:100D800021463C31E06B012202430A602046FFF716
:100D90008DFF20680C2101603B46802732463A4097
:100DA000514251412A061A4600D50A46002A0DD161
:100DB00001200004A16B0143A163204600951D465C
:100DC00000F0D0F82B46009D2068076010273E40B9
:100DD00071427141EA0603D4002B04D001B0F0BD8A
:100DE0000B46002BFAD1A16A012902D0C168C907BC
:100DF00008D0E16B02220A43E26307602046FFF756
:100E000078FF2068076001B0F0BD0000F0B581B048
:100E10000125002862D0044606462436806B00284F
:100E200003D0A06BC00609D554E000203074E06305
:100E3000204600F099F8A06BC0064BD4206881686A
:100E4000490747D481214900A26B8A43911CA163C1
:100E5000826803210A40012A05D10268D2070ED117
:100E6000C26812040BD4C26818239A43A3681343C0
:100E7000C360890702698A43616811430161C168DF
:100E8000364A0A40C260A16A491E4A1E91410903BE
:100E9000227E9203637EDB031343A27E55031D4330
:100EA000E36827692B430B43B91E4D424D41AD000A
:100EB0001D43317849002943E37E012B14D1002AD8
:100EC0000FD0A26B20231343A363E26B01231343D0
:100ED000E36309E0A06B10210143A163284601B040
:100EE000F0BD012212041143E269FF23C2339A428A
:100EF00002D0236A19431143C2680A43C260E26AFE
:100F0000531E072B24D243690725AB4343612A4074
:100F1000436913434361C068114A02408A420AD1BF
:100F20000025E563A06B0121014302208143A163F9
:100F3000284601B0F0BDA06B10210143022081437F
:100F4000A163E06B01252843E063284601B0F0BDB2
:100F500001231B079A42D6D0DDE7C0461902FEFFE7
:100F6000E7FF3F8370470000F0B587B004460026D6
:100F70000696059600682149884201D007B0F0BD69
:100F80001F484168012702977A020092114341608D
:100F90004168114001910199790402680A43026095
:100FA00000680840019004960320039001980920EE
:100FB000C00602A900F066F9124D2020F902802235
:100FC000114B48C52E606A60009AAA60E9602861EA
:100FD0006E61083D284600F0D5F8002801D0FFF7E3
:100FE000C7FD6C6225630C24002120460A4600F0F0
:100FF0007FFA204600F070FA07B0F0BD00240140EF
:1010000014100240BC00002008000240F0B583B07C
:101010000446006880680227400714D43420205C0E
:10102000012810D00E462546343501200290287044
:10103000607E01280AD020461746FFF739FD3A4660
:101040000746002802D0384603B0F0BD0192A06BDD
:1010500013490140029B18020818A0630027E763A8
:1010600021681C2008604868102202434A602F70E3
:10107000206B0D4A0D4D8562C2620A4A0263CA683E
:101080001A43CA6040313246019B00F0B9F820682B
:10109000816804220A438260384603B0F0BDC0462E
:1010A000FEF0FFFF8B0A0008A50A0008190A0008D5
:1010B000F0B585B0C16B026C04273C4602929440A7
:1010C00003910E68214631404B424B410490056824
:1010D0002868014639404A424A411A4330D00195B6
:1010E00001230227014639404C424C41029A974065
:1010F00037421D461946334600D02146049E3446E9
:10110000203400292CD0082108404742474110468E
:10111000D340190700D53D46002D019B1ED119680B
:101120000E229143196001210A468240039B5A60B6
:10113000B163002222706170316B00290CD10DE087
:101140002968890602D42968B943296003994C604B
:10115000049EF16A002901D03046884705B0F0BDF1
:10116000019B1968890605D419680A229143196000
:10117000012161700021217003994F60B16A00293B
:10118000EAD1EBE7F0B585B000282FD0044606463B
:10119000203602207070A2CC236860680190A0689D
:1011A0000290E0680390206904900868114A0240A8
:1011B0002A433A431A430198024302980243039890
:1011C0000243049802430A600025E5620A4820634E
:1011D00035700A480C3C0818142100F0F1FC80001E
:1011E000206401207070284605B0F0BD0125284616
:1011F00005B0F0BD0FC0FFFF00000240F8FFFDBFCB
:10120000F0B582B004462020255C0220012D2AD0B2
:1012100026462036012535707778012F21D102200E
:1012200070700020A06326683768AF433760E76BB3
:101230000097276C0195BD40009F7D6073606368D7
:10124000102B174600D00F46B760102B00D0114668
:10125000F1603168E26A002A019B06D00E22114338
:1012600009E00021317002B0F0BD0A221143316063
:10127000316804229143316031681943316002B012
:10128000F0BD0000F0B58AB003900F68002F00D1C8
:10129000C3E06348039A824201D0052000E00320A6
:1012A000009000231A461C4608910BE03A43326036
:1012B000079A641C0F683846E0409B1C121D0028EA
:1012C00000D1AAE001260596A6403740F1D007924A
:1012D000032002469A400293D34349680D460540D5
:1012E0006A1E012A0693049113D80197039FB868D8
:1012F0001840089AD268029B9A400243BA60C80616
:10130000C00FA0407A68B2433E46019F024372601C
:1013100006E0032D039E029B02D10546079A1EE0BC
:10132000F0680699084008998A689A400243F2607A
:10133000022D079A13D11C2010400F218140E20892
:101340009200B218156A8D43089E31698140294385
:101350001162079A7068039E0325049005409D4022
:101360003068069908402843306004988003800F55
:1013700008999ED057490868059D28430860086869
:10138000284009900C2010400F228240032125465E
:101390008D430999244EA9599143AD190922D206CA
:1013A000039E96420CD0214A964206D0204A96428D
:1013B000009A1C4E06D1022204E01A4E059A01E062
:1013C0000022184E82400A432A60B56808980146F8
:1013D0004068C2020FD53D43B560F56882020FD464
:1013E000BD43F560756882030FD4BD4375603268F4
:1013F000C00310D55AE7BD43B560F5688202EFD54A
:101400003D43F56075688203EFD53D4375603268F2
:10141000C00300D54AE7BA4349E70AB0F0BDC04669
:10142000000C00480004014008000140000400488E
:1014300000080048054800687047C0461A48007810
:1014400002490A68101808607047C0460001002071
:1014500080B58048016810220A430260032000F032
:1014600005F800F023F8002080BDC04670B50446A2
:101470007D20C0000C4E317800F0A2FB01467C4874
:10148000006800F09DFB00F0FDFA0125032C08D850
:10149000002806D10025E84321462A4600F028F816
:1014A0007460284670BDC0460000002082B0094824
:1014B0000168012211430160016811400191019905
:1014C000110742680A434260406808400090009853
:1014D00002B0704718100240002805D41F210840B0
:1014E00001218140014801607047C04600E100E0F1
:1014F000002805D40322034693430A4A9A1803E0BE
:101500000C220240064BD2188007C00E8901C9B2D6
:101510008140FF2383401068984308431060704760
:1015200014ED00E000E400E0F0B581B0002861D0E7
:101530000446484A1368012003408B4208D21368CE
:101540000126B3430B431360126832408A424ED1E6
:10155000009121688A07404B11D54A0707D5072219
:1015600012023D4B1B6813433B4A13603A4B1A6807
:10157000F0239A43A3681343374A1360364BC907D5
:101580003CD13449086801263040009A904205D980
:101590000868B04308600868C00728D12078400771
:1015A00006D50720000219688143E06808431860E7
:1015B00019680C220A402A48082A0CD18902090F0E
:1015C000284A545C996A0F220A402749895C00F036
:1015D000F7FA214B604319680906090F234A515C49
:1015E000C840234908600320FFF740FF002630462B
:1015F00001B0F0BD0126304601B0F0BD61681A1F90
:10160000022906D0012909D1126892030646EED5B7
:1016100008E0126892010646E9D503E012689207D5
:101620000646E4D518680326B04308431860FFF760
:1016300001FF0746094D084B18680C2101406068FE
:10164000800081429DD0FFF7F5FEC01BA842F2D971
:10165000CDE7C0460020024004100240881300007D
:1016600000127A00461E0008561E0008361E0008AA
:1016700008000020F0B587B004460120002C00D1FE
:10168000F5E104902078C007FB4E059419D07168ED
:101690000C20014004290DD071680140082900D0B8
:1016A000C0E00320C00371680140012000048142B2
:1016B00000D0B7E03068800303D56068002800D10F
:1016C00018E1207880071FD570680007800F0CD0C4
:1016D00070680C21014008297AD10320C003716889
:1016E00001400120C003814272D130688007059C0F
:1016F00003D5E068012800D0FCE03068F821884379
:101700002169C90001433160059C2078000724D479
:101710002078400736D42078C00600D4C5E005986C
:101720004069411D00D1B4E0012800D007E1706B91
:10173000042101437163706B012101437163FFF761
:1017400079FE0546706B800700D5A6E0FFF772FEB4
:10175000411B03200229F5D989E1706AE16900295A
:1017600074D0012108437062FFF764FE0546706A79
:101770008007CDD4FFF75EFE401B0228F7D9032077
:1017800007B0F0BD012003900107F0690840029006
:1017900006D1F0690843F061F069084006900698A8
:1017A0000191B64F3868C00528D403980402386800
:1017B00020433860FFF73EFE0546386820421DD1C1
:1017C000FFF738FE401B6428F7D9032007B0F0BDAF
:1017D0003068059CE16800294AD001210843306047
:1017E000FFF728FE05463068800786D4FFF722FE03
:1017F000401B0228F7D9032007B0F0BD0598806888
:101800009F4F002800D1AFE0052800D1C1E001289A
:1018100000D1C2E0306A039988433062306A042103
:101820008843BDE0616801204704002900D1D0E071
:10183000052900D1E4E0012900D1E5E00104326886
:101840008A433260810430688843E0E001218843A4
:101850007062FFF7EFFD0546706A800700D457E716
:10186000FFF7E8FD401B0228F6D9032007B0F0BDC2
:10187000012188433060FFF7DDFD054630688007B1
:1018800000D441E7FFF7D6FD411B03200229F5D91B
:10189000EDE0706B042188437063706BF82188431E
:1018A00005998969C900014371630598046A002C90
:1018B0001DD070680C21014008291ED1012C19D0BF
:1018C0000320C20370680240F16A059C636A9A4271
:1018D00010D10F221140E36A9942049B00D0C8E066
:1018E00091040840A16A8842184600D0BFE0002059
:1018F00007B0F0BD049807B0F0BD012002063168C2
:101900000492914331604706FFF794FD0546022C8F
:101910000BD1049C3068384200D188E0FFF78AFD83
:10192000411B03200229F5D9A1E030683842DED0FE
:10193000FFF780FD411B03200229F6D997E0706B69
:10194000042101437163706B012188437063FFF7C9
:1019500071FD0546706B8007A7D5FFF76BFD411B36
:1019600003200229F6D982E0306A03998843306265
:10197000306A042188433062FFF75CFD0546306A17
:1019800080071CD5FFF756FD411B0320B942F6D94D
:101990006DE0306A042101433162306A03990843E3
:1019A0003062FFF747FD0546306A800707D4FFF72E
:1019B00041FD401BB842F7D9032007B0F0BD0298A3
:1019C0000028059C00D0A6E6F06901998843F061E3
:1019D000A1E6010432688A433260800431688143A1
:1019E0003160FFF727FD0546059C3068384200D17D
:1019F00067E6FFF71FFD411B03206429F5D936E098
:101A0000810432680A433260010430680843306060
:101A1000FFF710FD05463068384200D051E6FFF769
:101A200009FD401B6428F6D9032007B0F0BDF06A19
:101A30000F218843059AD16A0143F1627B20C003DC
:101A400071688143906A0843516A0143716030684C
:101A500020433060FFF7EEFC04463068384200D087
:101A600045E7FFF7E7FC011B03200229F5D907B082
:101A7000F0BD184607B0F0BD0010024000700040F5
:101A800088130000401E010E01D001207047074955
:101A9000074A5060074803680B400321890759181B
:101AA000016000209060072111607047FFFFFF0078
:101AB00010E000E020ED00E0FEE7FEE77047704731
:101AC00080B5FFF7BBFC80BD7047000090B0FFF70A
:101AD000BFFC04AD281D2C21FEF77EFB01270997D2
:101AE00007971220049000240C9410200A9008906C
:101AF0002846FFF7BFFD002803D0EFF3108072B631
:101B0000FEE7039402940194072000906846214662
:101B1000FFF70AFD002803D0EFF3108072B6FEE74E
:101B2000780424490A6802430A600A680240049261
:101B3000049808683843086008683840049004989E
:101B40000925284621462246FFF7D2FC2846FFF702
:101B5000C3FC3020184D2C546F63EC62FF20C23060
:101B60000421164AEA602C616C61AC61EF61296264
:101B70006C62A8622E460C363046FFF747F9002803
:101B800003D0EFF3108072B6FEE704943807069096
:101B90003803059004A93046FEF7EEFF002803D075
:101BA000EFF3108072B6FEE7012230462946FFF7B8
:101BB0002DFAFEE7141002407000002000240140BE
:101BC00043088B421AD3002203098B4279D3030ABC
:101BD0008B425ED3030B8B4242D3030C8B4227D341
:101BE0000902FF2212BA030C8B4202D3121209021D
:101BF00003D0030B8B4233D31AE0D3E0411A804168
:101C0000401C704703460B4371D443088B42F5D305
:101C1000002203098B4254D3030A8B4239D3030BAE
:101C20008B421DD3030C8B4202D394466EE0090A0B
:101C3000C30B8B4201D3CB03C01A5241830B8B429F
:101C400001D38B03C01A5241430B8B4201D34B0388
:101C5000C01A5241030B8B4201D30B03C01A5241ED
:101C6000C30A8B4201D3CB02C01A5241830A8B4272
:101C700001D38B02C01A5241430A8B4201D34B025B
:101C8000C01A5241030A8B4201D30B02C01A5241BF
:101C9000CDD2C3098B4201D3CB01C01A5241830973
:101CA0008B4201D38B01C01A524143098B4201D3AD
:101CB0004B01C01A524103098B4201D30B01C01AD8
:101CC0005241C3088B4201D3CB00C01A5241830852
:101CD0008B4201D38B00C01A524143088B4201D37F
:101CE0004B00C01A5241411A524110007047CA0FAE
:101CF00000D04942031000D34042534000229C468A
:101D000003098B422DD3030A8B4212D38901FC2293
:101D100012BA030A8B420CD3890192118B4208D369
:101D2000890192118B4204D3890137D0921100E0CE
:101D30008909C3098B4201D3CB01C01A52418309DF
:101D40008B4201D38B01C01A524143098B4201D30C
:101D50004B01C01A524103098B4201D30B01C01A37
:101D60005241C3088B4201D3CB00C01A52418308B1
:101D70008B4201D38B00C01A5241D9D243088B4207
:101D800001D34B00C01A5241411A00D201465241C0
:101D9000104663465B1000D34042704763465B10B9
:101DA00000D3404201B50021004201D0C94308469A
:101DB000C046C04602BD80807F7E7D7C7B7A79787C
:101DC000777676757473727171706F6E6E6D6C6C00
:101DD0006B6A6A69686867666665646463636261A2
:101DE0006160605F5F5E5E5D5D5C5C5B5B5A5A5923
:101DF000595858575756565555555454535352528F
:101E00005251515050504F4F4F4E4E4D4D4D4C4CE6
:101E10004C4B4B4B4A4A4A4949494848484747472F
:101E2000474646464545454444444443434343426C
:101E30004242424141410000000000000000010216
:101E400003040607080902030405060708090A0B2C
:101E50000C0D0E0F10100102030405060708090AF5
:101E60000B0C0D0E0F100000881E00080000002053
:101E70001000000004010008981E00081000002057
:101E8000F806000020010008010000000400000026
:081E900000127A0000000000BE
:04000005080000C12E
:00000001FF
