:020000040800F2
:100000000807002065010008791000087710000833
:1000100000000000000000000000000000000000E0
:100020000000000000000000000000007D1000083B
:1000300000000000000000007B1000087F10000896
:100040007701000800000000770100087701000830
:1000500077010008770100087701000877010008A0
:100060000000000077010008770100087701000810
:100070007701000877010008770100080000000000
:100080007701000877010008770100087701000870
:100090007701000877010008770100087701000860
:1000A0007701000877010008770100087701000850
:1000B0008D17000877010008000000007701000894
:1000C00000F002F800F03EF80CA030C80838241800
:1000D0002D18671EA246AB4654465D46AC4201D180
:1000E00000F030F87E460F3EB6460FCC0126334274
:1000F00000D0FB1A3343A246AB46184780190000D4
:10010000A0190000103A02D378C878C1FAD8520773
:1001100001D330C830C101D504680C6070470000BD
:100120000023002400250026103A01D378C1FBD813
:10013000520700D330C100D50B6070471FB51FBDFB
:1001400010B510BD00F04DF81146FFF7F7FF01F0B4
:1001500023FB00F065F803B4FFF7F2FF03BC00F0E7
:100160006BF800000748804707480047FEE7FEE7B6
:10017000FEE7FEE7FEE7FEE704480549054A064BB1
:100180007047000087100008C10000080801002027
:1001900008070020080300200803002001E004C035
:1001A000091F0429FBD28B0701D50280801CC907D7
:1001B00000D00270704700290BD0C30702D0027034
:1001C000401C491E022904D3830702D50280801CEB
:1001D000891EE3E70022EEE70022DFE77047704761
:1001E0007047754600F024F8AE4605006946534650
:1001F000C008C000854618B020B5FFF7BDFF60BC41
:10020000B64600260027C0C5C0C5C0C5C0C5C0C50C
:10021000C0C5C0C5C0C5403D490849008D467047AE
:1002200010B50446C046C0462046FFF794FF10BDF7
:10023000004870471000002001491820ABBEFEE7BF
:1002400026000200704710B5014620314A78022A84
:1002500012D1026813680E24A343136013680124AB
:10026000A3431360C26B006C2346834053604C7001
:10027000002000220A7010BD0422826301200022A7
:100280000A7010BDB0B5014620314A78022A16D155
:10029000026813680E24A343136013680125AB435F
:1002A0001360C26B036C2C469C40546000240C709D
:1002B0004D70416B002900D088472046B0BD042115
:1002C00081630120B0BD0000F0B58AB003900F68D3
:1002D000002F00D1C3E06348039A824201D0052079
:1002E00000E00320009000231A461C4608910BE012
:1002F0003A433260079A641C0F683846E0409B1C02
:10030000121D002800D1AAE001260596A64037401C
:10031000F1D00792032002469A400293D3434968E2
:100320000D4605406A1E012A0693049113D80197D1
:10033000039FB8681840089AD268029B9A4002430B
:10034000BA60C806C00FA0407A68B2433E46019F1B
:100350000243726006E0032D039E029B02D1054614
:10036000079A1EE0F0680699084008998A689A4042
:100370000243F260022D079A13D11C2010400F2176
:100380008140E2089200B218156A8D43089E3169D7
:10039000814029431162079A7068039E03250490E7
:1003A00005409D4030680699084028433060049815
:1003B0008003800F08999ED057490868059D2843FF
:1003C00008600868284009900C2010400F228240E5
:1003D000032125468D430999244EA9599143AD190E
:1003E0000922D206039E96420CD0214A964206D09C
:1003F000204A9642009A1C4E06D1022204E01A4E70
:10040000059A01E00022184E82400A432A60B5682E
:10041000089801464068C2020FD53D43B560F568B3
:1004200082020FD4BD43F560756882030FD4BD43CB
:1004300075603268C00310D55AE7BD43B560F568F2
:100440008202EFD53D43F56075688203EFD53D43E9
:1004500075603268C00300D54AE7BA4349E70AB07D
:10046000F0BDC046000C00480004014008000140F7
:100470000004004800080048054800687047C0466E
:100480001A48007802490A68101808607047C04688
:100490000001002080B58048016810220A430260F4
:1004A000032000F005F800F023F8002080BDC046CE
:1004B00070B504467D20C0000C4E317801F0C6F9BD
:1004C00001467D48006801F0C1F900F01FFB0125DD
:1004D000032C08D8002806D10025E84321462A46E7
:1004E00000F028F87460284670BDC0460000002067
:1004F00082B009480168012211430160016811407E
:1005000001910199110742680A434260406808401E
:100510000090009802B0704718100240002805D4DF
:100520001F21084001218140014801607047C046F9
:1005300000E100E0002805D40322034693430A4A61
:100540009A1803E00C220240064BD2188007C00E16
:100550008901C9B28140FF23834010689843084352
:100560001060704714ED00E000E400E0F0B581B0E9
:10057000002861D00446484A1368012003408B429A
:1005800008D213680126B3430B431360126832404C
:100590008A424ED1009121688A07544B11D54A07EF
:1005A00007D507221202514B1B6813434F4A1360B1
:1005B0004E4B1A68F0239A43A36813434B4A1360C7
:1005C0004A4BC9073CD13449086801263040009A9B
:1005D000904205D90868B04308600868C00728D170
:1005E0002078400706D50720000219688143E0689B
:1005F0000843186019680C220A403D48082A0CD1AB
:100600008902090F3B4A545C996A0F220A403A4911
:10061000895C01F01BF9354B604319680906090F25
:100620001F4A515CC840244908600320FFF740FF7F
:100630000026304601B0F0BD0126304601B0F0BDC5
:1006400061681A1F022906D0012909D11268920394
:100650000646EED508E0126892010646E9D503E0A9
:10066000126892070646E4D518680326B04308438B
:100670001860FFF701FF0746084D1C4B18680C2156
:1006800001406068800081429DD0FFF7F5FEC01BED
:10069000A842F2D9CDE7C0460020024088130000EE
:1006A000421A000804480068104909684905490FC2
:1006B000024A515CC840704708000020521A0008E6
:1006C00010B50A490A680C2313400948082B0BD1BE
:1006D0009202120F074B9C5C896A0F220A4006495E
:1006E000895C01F0B3F8604310BDC04604100240BD
:1006F00000127A005A1A00086A1A0008F0B587B08A
:1007000004460120002C00D1F5E104902078C007B8
:10071000FB4E059419D071680C20014004290DD0BE
:1007200071680140082900D0C0E00320C00371684F
:10073000014001200004814200D0B7E0306880030E
:1007400003D56068002800D118E1207880071FD504
:1007500070680007800F0CD070680C2101400829D8
:100760007AD10320C003716801400120C003814297
:1007700072D130688007059C03D5E068012800D05D
:10078000FCE03068F82188432169C90001433160E9
:10079000059C2078000724D42078400736D42078A0
:1007A000C00600D4C5E005984069411D00D1B4E001
:1007B000012800D007E1706B042101437163706B65
:1007C000012101437163FFF757FE0546706B8007F7
:1007D00000D5A6E0FFF750FE411B03200229F5D902
:1007E00089E1706AE169002974D0012108437062CF
:1007F000FFF742FE0546706A8007CDD4FFF73CFE46
:10080000401B0228F7D9032007B0F0BD0120039058
:100810000107F0690840029006D1F0690843F061D1
:10082000F0690840069006980191B64F3868C005F7
:1008300028D403980402386820433860FFF71CFE70
:100840000546386820421DD1FFF716FE401B64287C
:10085000F7D9032007B0F0BD3068059CE168002996
:100860004AD0012108433060FFF706FE0546306894
:10087000800786D4FFF700FE401B0228F7D903202B
:1008800007B0F0BD059880689F4F002800D1AFE009
:10089000052800D1C1E0012800D1C2E0306A0399E7
:1008A00088433062306A04218843BDE061680120DA
:1008B0004704002900D1D0E0052900D1E4E0012956
:1008C00000D1E5E0010432688A4332608104306877
:1008D0008843E0E0012188437062FFF7CDFD0546C3
:1008E000706A800700D457E7FFF7C6FD401B022857
:1008F000F6D9032007B0F0BD012188433060FFF72F
:10090000BBFD05463068800700D441E7FFF7B4FD22
:10091000411B03200229F5D9EDE0706B04218843C7
:100920007063706BF821884305998969C900014398
:1009300071630598046A002C1DD070680C21014079
:1009400008291ED1012C19D00320C203706802406F
:10095000F16A059C636A9A4210D10F221140E36A42
:100960009942049B00D0C8E091040840A16A8842E3
:10097000184600D0BFE0002007B0F0BD049807B0D3
:10098000F0BD0120020631680492914331604706B0
:10099000FFF772FD0546022C0BD1049C30683842EB
:1009A00000D188E0FFF768FD411B03200229F5D93B
:1009B000A1E030683842DED0FFF75EFD411B032026
:1009C0000229F6D997E0706B042101437163706BC3
:1009D000012188437063FFF74FFD0546706B800768
:1009E000A7D5FFF749FD411B03200229F6D982E074
:1009F000306A039988433062306A04218843306248
:100A0000FFF73AFD0546306A80071CD5FFF734FD35
:100A1000411B0320B942F6D96DE0306A042101433D
:100A20003162306A039908433062FFF725FD0546BD
:100A3000306A800707D4FFF71FFD401BB842F7D983
:100A4000032007B0F0BD02980028059C00D0A6E660
:100A5000F06901998843F061A1E6010432688A4394
:100A600032608004316881433160FFF705FD05463F
:100A7000059C3068384200D167E6FFF7FDFC411B5A
:100A800003206429F5D936E0810432680A433260D4
:100A90000104306808433060FFF7EEFC054630681B
:100AA000384200D051E6FFF7E7FC401B6428F6D936
:100AB000032007B0F0BDF06A0F218843059AD16A80
:100AC0000143F1627B20C00371688143906A08434F
:100AD000516A01437160306820433060FFF7CCFCFD
:100AE00004463068384200D045E7FFF7C5FC011BDB
:100AF00003200229F5D907B0F0BD184607B0F0BDB4
:100B0000001002400070004088130000401E010EDB
:100B100001D0012070470749074A50600748036821
:100B20000B400321890759180160002090600721BC
:100B300011607047FFFFFF0010E000E020ED00E0D3
:100B400070477047F0B589B00368D9691F682022E3
:100B50000797069217407C427C410125EA0216461F
:100B60002F3608910E40203E711E8E4126439E680E
:100B700052D00297039305950746583711460F3117
:100B8000089B0B420490079D06D0E14929400123B0
:100B90001E40711800D08FE03B46102429462140AA
:100BA0004E424E41089A1146029421404F424F4115
:100BB000016E01290598044634D13C46002C0446B8
:100BC00033D0002C34D0802129404C424C411106B6
:100BD0000346049800D52346002B00D1D9E04024D9
:100BE00025406B426B41510600D5059305990029BC
:100BF00010D1EFF31081012282F31088026813688C
:100C0000A343136081F310880021C1660699C16770
:100C100000F030FA09B0F0BD816E0029FAD08847A3
:100C200009B0F0BD002C0446CBD13446002CCAD10B
:100C30001F4603980299016280684006049900D516
:100C4000AEE07B8838887A88002AE3D09842E1D0E9
:100C5000EFF31084012282F3108809256D010E68DC
:100C600008933B463768AF43376084F31088EFF34F
:100C7000108482F310880D68AE689643AE6084F3EA
:100C80001088069C9C6200248C660C66EFF310842E
:100C900082F310880A681568029B9D43156084F3EF
:100CA000108802224A66089A801A82B208461146C3
:100CB000FFF746FF09B0F0BD0192190229404C42EE
:100CC0004C41089AD1070598014600D021460029D9
:100CD00004D103990B62F96A1943F96274427441B1
:100CE0009107014600D52146002907D10221039A28
:100CF0001162089AF96A04240C43FC62744274413C
:100D00005107014600D52146002907D10421039A45
:100D10001162089AF96A02240C43FC6202990E439C
:100D2000744274411107064600D52646002E039EE4
:100D300004D108213162FC6A0C43FC6299060D4023
:100D40006C426C41154601990A4205460DD0254674
:100D5000002D0CD101983062F96A06980143F962BE
:100D6000F96A0029029907D154E7002DF2D0F96AF7
:100D70000029029900D14DE70698024005984C429F
:100D80004C41002A00D020461D4600285BD0049C20
:100D900060E0C16E002900D13CE7884709B0F0BD92
:100DA000486F016849688AB2002A00D132E73C885E
:100DB000A242049C00D32DE779808069202837D097
:100DC000EFF31081012080F31088534A2032049CF5
:100DD000246825681540256081F31088EFF31081A1
:100DE00080F31088049A126894688443946081F3B5
:100DF0001088EFF3108180F31088049A12689468C9
:100E00004025AC439460049C81F310880699B96234
:100E100000212166EFF3108180F3108820680268BA
:100E2000029B9A43026081F31088606FFFF70BFA10
:100E30000220606638887988401A81B22046FFF720
:100E40007FFE09B0F0BD049CA16E002902D02046AF
:100E500088472668F96A28230B40B1684020014082
:100E6000C91806D12046FFF76CFE0020F86209B0D1
:100E7000F0BDEFF310812E4685F310880922520150
:100E800023681C6894431C60049C81F31088EFF372
:100E9000108185F3108822689368AB43936081F3D7
:100EA0001088216E01290BD1EFF3108185F3108892
:100EB000226813681024A343049C136081F31088F4
:100EC0000699B96200212166A166216889684906F0
:100ED00018D5EFF3108185F3108822689368834357
:100EE000936081F31088606F00280BD0094941633B
:100EF000FFF7C8F9002800D18CE6606F416B884786
:100F000009B0F0BD2046FFF71CFE09B0F0BDC04699
:100F10002001000421120008DFFEFFFFB0B5002809
:100F20002ED00446C06F002805D17820002121541E
:100F3000204600F027F82420E0672068016801259A
:100F4000A9430160204600F041FA012816D0606AEA
:100F5000002802D0204600F097F80120C102226844
:100F600053688B43536091680823994391601168DB
:100F700001431160204600F0F1F805462846B0BD57
:100F80000120B0BDB0B586B000681749884201D0D5
:100F900006B0B0BD15488168012205925204114384
:100FA00081608168114000910099016811430160DE
:100FB0000068104000900320049000240394022055
:100FC00002900C20019000980920C00601A9FFF7AB
:100FD0007BF91C25284621462246FFF7ABFA284616
:100FE000FFF79CFA06B0B0BD004400401410024068
:100FF000F0B581B08023C358202B12D101240029E1
:101000000CD0002A0AD001231C038568A5420CD10C
:10101000CC070AD00469002C07D11C46204601B039
:10102000F0BD0224204601B0F0BD0024046605682E
:101030006D682D020AD5EFF3108583F310889B06A7
:10104000066837681F43376085F3108800F066FA3A
:10105000204601B0F0BD000080B503480288034877
:101060000349FFF7C5FF80BD0C0000207000002081
:10107000F80000207047FEE7FEE77047704780B534
:10108000FFF7FEF980BD7047B0B5416ACA070CD1C1
:101090008A0714D44A071CD40A0724D4CA062CD4BD
:1010A0008A0634D44A063CD44CE001225204036838
:1010B0005C689443826A22435A608A07EAD5012217
:1010C000120403685C689443C26A22435A604A0768
:1010D000E2D50122920403685C689443026B2243C8
:1010E0005A600A07DAD50122D20303685C68944388
:1010F000426B22435A60CA06D2D50122120303680A
:101100009C689443826B22439A608A06CAD5012266
:10111000520303689C689443C26B22439A604A0658
:1011200010D501221305026854689C43056C2C43BA
:1011300054609D4206D103235B0554689C43436C75
:1011400023435360090607D50121C9040268536887
:101150008B43806C18435060B0BD0000F0B583B085
:101160000446064678360027F760FFF785F9034600
:101170002068016809071FD52848009001200290C7
:101180004105002220461D4600F02EFA002811D00D
:10119000EFF31080029981F3108821680A68802398
:1011A0009A430A6080F310882020E067032037709C
:1011B00003B0F0BD20682B460068400725D51748CE
:1011C00000900125A9050022204600F00DFA002814
:1011D0001BD0EFF3108085F31088092149012268A4
:1011E00013688B43136080F31088EFF3108085F34E
:1011F000108821688A68AA438A6080F310882020BA
:10120000B0600320377003B0F0BD2020E067B0600D
:10121000276667663846377003B0F0BDFFFFFF01F1
:1012200080B5406A0146523100220A815221425261
:10123000FFF787FC80BDF0B581B0026801465831E8
:101240008B888C6A222C0DD1928C1A40436D1A80A7
:101250004A88521E4A809A1C42654A88002A07D052
:1012600001B0F0BD906908210143916101B0F0BD6A
:10127000EFF31083012282F31088092464010568CA
:101280002E68A6432E6083F31088EFF3108382F359
:1012900010880468A5689543A56083F3108820230F
:1012A0008B620023436683660468646824020AD55F
:1012B000EFF3108482F31088950606683768AF4311
:1012C000376084F31088046E012C15D10366EFF3A8
:1012D000108382F3108804682568102295432560E6
:1012E00083F310880368DC69E40600D51A62098874
:1012F000FFF726FC01B0F0BDFFF7AEFE01B0F0BD78
:10130000F0B581B00268014658318B888C6A222C76
:101310000ED1928C1A40436D1A704A88521E4A8030
:10132000426D521C42654A88002A07D001B0F0BDC8
:10133000906908210143916101B0F0BDEFF3108382
:10134000012282F310880924640105682E68A643EF
:101350002E6083F31088EFF3108382F31088046803
:10136000A5689543A56083F3108820238B62002332
:10137000436683660468646824020AD5EFF3108428
:1013800082F31088950606683768AF43376084F3A8
:101390001088046E012C15D10366EFF3108382F3DD
:1013A00010880468256810229543256083F310880F
:1013B0000368DC69E40600D51A620988FFF7C0FB00
:1013C00001B0F0BDFFF748FE01B0F0BDB0B5044676
:1013D00000680168444A0A40A16823690B436569B3
:1013E0001D431543E1690D43056003221203436861
:1013F0009343E2681A434260A269236A13430B22B3
:101400001202856895431D4385600022374B984240
:1014100006DC394B984211D0384B98420ED00CE084
:10142000334B98420AD0334A904206D13448006880
:101430008007000F33A2125800E010220125EB03B1
:101440003448994210D1082A49D8C0467A441279C2
:101450005200974404442044194444441F00FFF7B9
:1014600021F9002817D113E0082A38D87A441279D4
:101470005200974404342734203434342600FFF7D4
:1014800011F900281ED11AE0FFF71AF9002802D13D
:10149000002524E01846400061684A08101800F052
:1014A000D5F90246103A1C498A4218D20140000779
:1014B000400F084310E0FFF703F9002802D1002590
:1014C0000DE0184661684A08101800F0BFF901469F
:1014D0001039114A914202D22168C86000250020CB
:1014E000A066E0662846B0BDF369FFEFFF4B004001
:1014F000004C0040003801400044004000480040DB
:10150000301002400000000004000000080000004D
:101510000200000000127A00F0FF0000B0B558236E
:10152000C252416500238366014658314A80826871
:10153000002A0BD001242507AA420CD02403A24282
:101540000ED10269002A04D1244A0CE00269002A63
:1015500008D1FF2207E00269002A03D03F2202E0FF
:101560008B8001E07F228A80CB6222228A62EFF3A5
:101570001082012181F3108803689C680C439C60F1
:1015800082F3108802690B0384689C4204D1002A0C
:1015900014D0134A826603E0114B8366002A0FD0F1
:1015A000EFF3108281F31088092149010068036874
:1015B0000B43036082F310880020B0BD094A8266A5
:1015C000EFF3108281F310880068016820230B4339
:1015D000036082F310880020B0BDC046FF01000008
:1015E0000113000837120008F0B587B015460F4602
:1015F0000668F1693940C91B4A424A410021AA42A2
:1016000025D106930C9C002C24D00B46611C26D1BE
:10161000F1693940C91B4A424A41AA4214D1F169D1
:101620003940C91B4A424A41AA420DD1F1693940A9
:10163000C91B4A424A41AA4206D1F1693940C91B35
:101640004A424A41AA42E3D0184607B0F0BD0846D4
:1016500007B0F0BDFEF710FF032007B0F0BD029306
:1016600001467831039101210191C902049105904D
:1016700006E0C9693940CA1B51425141A9424BD1C8
:10168000FEF7FAFE0699411A0323A142DCD8059819
:1016900001680A685207ECD5CA6912073FD4CA69C3
:1016A0002646049C22423446E3D01F460498086232
:1016B000EFF31082012181F3108809235B01059863
:1016C000046825689D43256082F31088EFF310823B
:1016D00081F31088059803689C688C439C6005988A
:1016E00082F31088026E012A0BD1EFF3108281F38E
:1016F000108801680B681024A3430B60059882F3DF
:1017000010882021039B99600022026682661A706D
:10171000D960384607B0F0BD029807B0F0BD082583
:101720000D62EFF31081019880F3108809225201B5
:10173000059B1B681C6894431C6081F31088EFF3C1
:10174000108180F31088059A126893688343936030
:10175000059B81F31088196E01290CD1EFF31081DC
:10176000012282F310881A6813681024A3431360BF
:10177000059B81F310882021039A9160002119664E
:1017800099661170D56007B0F0BD000080B52B4898
:10179000FFF7D8F980BDC04690B0FEF77BFE04ADE0
:1017A000281D2C21FEF718FD00240C941020089011
:1017B00001260796022004902846FEF79FFF002886
:1017C00003D0EFF3108072B6FEE703940294019405
:1017D0000720009068462146FEF7C8FE002803D087
:1017E000EFF3108072B6FEE77104134A10680843E5
:1017F000106012480C2343610461C4608460104B84
:1018000003604B235B02436012688461C46104621D
:1018100044620A4004920499FFF780FB002803D039
:10182000EFF3108072B6FEE70648028803480649C7
:10183000FFF7DEFBFEE7C0461410024070000020F8
:10184000004400400C000020F800002043088B42B8
:101850001AD3002203098B4279D3030A8B425ED349
:10186000030B8B4242D3030C8B4227D30902FF2286
:1018700012BA030C8B4202D31212090203D0030BDB
:101880008B4233D31AE0D3E0411A8041401C7047A9
:1018900003460B4371D443088B42F5D3002203095E
:1018A0008B4254D3030A8B4239D3030B8B421DD393
:1018B000030C8B4202D394466EE0090AC30B8B42A1
:1018C00001D3CB03C01A5241830B8B4201D38B034C
:1018D000C01A5241430B8B4201D34B03C01A5241F1
:1018E000030B8B4201D30B03C01A5241C30A8B4234
:1018F00001D3CB02C01A5241830A8B4201D38B021F
:10190000C01A5241430A8B4201D34B02C01A5241C2
:10191000030A8B4201D30B02C01A5241CDD2C30934
:101920008B4201D3CB01C01A524183098B4201D3B0
:101930008B01C01A524143098B4201D34B01C01A9B
:10194000524103098B4201D30B01C01A5241C30813
:101950008B4201D3CB00C01A524183088B4201D382
:101960008B00C01A524143088B4201D34B00C01A6E
:101970005241411A524110007047CA0F00D04942EB
:10198000031000D34042534000229C4603098B427F
:101990002DD3030A8B4212D38901FC2212BA030A07
:1019A0008B420CD3890192118B4208D38901921189
:1019B0008B4204D3890137D0921100E08909C30911
:1019C0008B4201D3CB01C01A524183098B4201D310
:1019D0008B01C01A524143098B4201D34B01C01AFB
:1019E000524103098B4201D30B01C01A5241C30873
:1019F0008B4201D3CB00C01A524183088B4201D3E2
:101A00008B00C01A5241D9D243088B4201D34B00FC
:101A1000C01A5241411A00D2014652411046634653
:101A20005B1000D34042704763465B1000D34042D6
:101A300001B50021004201D0C9430846C046C04656
:101A400002BD0000000000000000010203040607C0
:101A50000809000000000102030402030405060750
:101A600008090A0B0C0D0E0F1010010203040506E5
:101A70000708090A0B0C0D0E0F100000A01A000831
:101A8000000000201000000004010008B01A000847
:101A900010000020F80600002001000800000000EF
:101AA000010000000400000000127A00060000009F
:04000005080000C12E
:00000001FF
